:020000040800F2
:10000000980B0020B9010008191E0008051D000802
:1000100000000000000000000000000000000000E0
:10002000000000000000000000000000692100083E
:1000300000000000000000001D1E0008D925000877
:10004000CB01000800000000CB010008CB01000834
:10005000CB01000891040008A1040008CB010008AE
:1000600000000000CB010008CB010008CB01000814
:10007000CB010008CB010008CB0100080000000004
:10008000CB0100080000000000000000CB010008C8
:1000900000000000CB010008CB010008CB010008E4
:1000A000CB010008211E0008CB010008CB0100088D
:1000B000CB0100080000000000000000000000006C
:1000C00000F002F800F04CF812A030C808382418EC
:1000D0002D18AC4201D100F043F80FCCA246AB463C
:1000E0000CA730CF2D1B083F3F197C427F1E544484
:1000F0002D090426F441641EAC4201D300F030F80F
:100100000126334200D0FB1A3343984754465D46DC
:10011000DFE70000F426000014270000103A02D3A5
:1001200078C878C1FAD8520701D330C830C101D598
:1001300004680C6070470000704700000023002432
:1001400000250026103A01D378C1FBD8520700D30E
:1001500030C100D50B6070471FB51FBD10B510BD75
:1001600000F066F91146FFF7F7FF02F0D1FA00F050
:100170007EF903B4FFF7F2FF03BC00F081F9000041
:1001800070B505460C46164602E00FCC0FC5103E72
:10019000102EFAD2082E02D303CC03C5083E042E3B
:1001A00007D301CC01C5361F03E021782970641CF8
:1001B0006D1C761EF9D270BD07488047074800477E
:1001C000FEE7FEE7FEE7FEE7FEE7FEE70448054937
:1001D000054A064B704700005F260008C100000872
:1001E00098050020980B0020980700209807002011
:1001F000F8B5042A2CD3830712D00B78491C03705E
:10020000401C521E83070BD00B78491C0370401C06
:10021000521E830704D00B78491C0370401C521EE9
:100220008B079B0F05D0C91ADF002023DE1B08C9EE
:100230000AE0FFF7A5FFF8BD1D4608C9FD401C46B2
:10024000B4402C4310C0121F042AF5D2F308C91A77
:10025000521EF0D40B78491C0370401C521EEAD485
:100260000B78491C0370401C012AE4D40978017002
:10027000F8BD01E004C0091F0429FBD28B0701D59A
:100280000280801CC90700D00270704700290BD083
:10029000C30702D00270401C491E022904D3830701
:1002A00002D50280801C891EE3E70022EEE70022CF
:1002B000DFE70000002203098B422CD3030A8B42A4
:1002C00011D300239C464EE003460B433CD400224E
:1002D00043088B4231D303098B421CD3030A8B4260
:1002E00001D394463FE0C3098B4201D3CB01C01A2E
:1002F000524183098B4201D38B01C01A52414309F9
:100300008B4201D34B01C01A524103098B4201D3E6
:100310000B01C01A5241C3088B4201D3CB00C01A53
:10032000524183088B4201D38B00C01A52414308CB
:100330008B4201D34B00C01A5241411A00D20146F0
:100340005241104670475DE0CA0F00D04942031089
:1003500000D3404253409C46002203098B422DD3D8
:10036000030A8B4212D38901FC2212BA030A8B4280
:100370000CD3890192118B4208D3890192118B42CF
:1003800004D389013AD0921100E08909C3098B4254
:1003900001D3CB01C01A524183098B4201D38B0197
:1003A000C01A524143098B4201D34B01C01A52413A
:1003B00003098B4201D30B01C01A5241C3088B427F
:1003C00001D3CB00C01A524183088B4201D38B006A
:1003D000C01A5241D9D243088B4201D34B00C01AF4
:1003E0005241411A00D201465241104663465B1009
:1003F00001D34042002B00D54942704763465B1051
:1004000000D3404201B50549002802DC491C0840E0
:1004100000E00846C046C04602BD00BFFFFFFF7FA8
:100420007047704770470000004870471000002078
:100430007546FFF7F9FFAE46050069465346C0080A
:10044000C000854618B020B5FFF7C0FE60BCB646B8
:1004500000260027C0C5C0C5C0C5C0C5C0C5C0C531
:10046000C0C5C0C5403D490849008D46704710B51C
:100470000446C046C0462046FFF77BFE10BD000084
:1004800001491820ABBEFEE72600020070470000BD
:1004900080B5074901200870022000F097F880BD60
:1004A00080B5034901200870082000F08FF880BD56
:1004B0007100002081B0EFF3108072B60090FFE76A
:1004C000FEE7000080B582B0019069460020087008
:1004D00001982521405C022807D0FFE701990420FC
:1004E000C86369460120087043E001980168086804
:1004F0000E22904308600198016808680122904329
:1005000008600198416C08681302984308600198DC
:10051000006C1C210840824018490868104308609C
:100520000199C86C896C48600198006D00280CD056
:10053000FFE70198016D08680122120290430860EC
:100540000199886D496D4860FFE7019925220120D6
:100550008854FFE70199242200208854FFE701987E
:10056000806B002804D0FFE70198816B8847FFE784
:10057000FFE76846007802B080BDC0460400024034
:1005800080B584B0039000F0E7F9029003980190E1
:100590000198401C002806D0FFE7F5480178019833
:1005A00040180190FFE7FFE700F0D6F90299401AE2
:1005B0000199884201D2FFE7F6E704B080BDC0464A
:1005C00081B06946088001B07047000080B582B0F4
:1005D00001A908800F4800680988084208D0FFE791
:1005E00001A801880B4A1160008800F017F8FFE7A6
:1005F0000948006801A90988084208D0FFE701A856
:100600000188054A11600088FFF7DAFFFFE702B0B2
:1006100080BDC0460C1802401018024081B06946E7
:10062000088001B0704700008AB00990089100204E
:100630000790FFE7089800680799C840002800D194
:1006400047E108980068079A012191400840069008
:100650000698002800D138E1089840680321084036
:10066000012807D0FFE708984068032108400228C6
:100670002CD1FFE709988068059007984000032176
:1006800081400598884305900898C1680798400004
:100690008140059808430590059809998860099854
:1006A000406805900798012181400598884305908E
:1006B0000898406810210840010907988140059872
:1006C00008430590059809994860FFE70898406835
:1006D00003210840032816D0FFE70998C068059059
:1006E00007984000032181400598884305900898A9
:1006F0008168079840008140059808430590059857
:100700000999C860FFE7089840680321084002285B
:1007100020D1FFE709980799C90889004018006AA5
:10072000059007984007C00E0F2181400598884327
:1007300005900898016907984007C00E8140059808
:100740000843059005980999079AD20892008918DC
:100750000862FFE7099800680590079841000320A8
:1007600002468A40059991430591089949680140DC
:10077000079840008140059808430590059809991D
:100780000860089880798007002800D19CE00798CD
:100790000321884350494058059007988007C00EB0
:1007A0000F21814005988843059009980521090784
:1007B000884203D1FFE70020049022E009984749CE
:1007C000884203D1FFE70120039017E009984449CC
:1007D000884203D1FFE7022002900CE00999414AC8
:1007E0000320052300939142019001D000980190CD
:1007F00001980290FFE702980390FFE703980490A6
:10080000FFE7049907988007C00E814005980843C8
:10081000059005980799032291432F4A8850324842
:100820000068059006990598884305900898807996
:10083000C006002805D5FFE70699059808430590EE
:10084000FFE7059828490860284800680590069940
:10085000059888430590089880798006002805D57A
:10086000FFE70699059808430590FFE705981F499B
:1008700008601F4800680590069905988843059010
:10088000089880798007002805D5FFE70699059824
:1008900008430590FFE7059815490860154800686A
:1008A0000590069905988843059008988079C007B7
:1008B000002805D0FFE70699059808430590FFE753
:1008C00005980C490860FFE7FFE70798401C079070
:1008D000B0E60AB07047C0466018024000040050FD
:1008E00000080050000C005000180240041802409C
:1008F000841802408018024084B00091014600989C
:10090000039102A90880039800690988084204D06D
:10091000FFE701A90120087003E001A90020087089
:10092000FFE701A8007804B0704783B0029001A8E7
:100930000180684602700078002805D0FFE701A812
:1009400000880299886104E001A800880299886201
:10095000FFE703B070470000064800687047C046D4
:100960003148027803490868801808607047C0461B
:10097000040000209405002080B582B001A9002069
:100980000870F4490868012212021043086003202D
:1009900000F00EF8002804D0FFE701A9012008703C
:1009A00002E000F043F8FFE701A8007802B080BD44
:1009B00080B584B0039002A9002008701A4800781E
:1009C000002829D0FFE7E748006801901648017821
:1009D0007D20C000FFF76EFC01460198FFF76AFC1E
:1009E00001F088F9002812D1FFE70398032809D8FD
:1009F000FFE703990022D04300F041F80398DA4959
:100A0000086003E002A901200870FFE703E002A9E3
:100A100001200870FFE703E002A901200870FFE74A
:100A200002A8007804B080BD0400002082B0FFE777
:100A30000B48026801210A430260006808400190E7
:100A40000198FFE7FFE707480268012109070A4309
:100A500002600068084000900098FFE702B070470D
:100A6000401002403C10024080B582B0014601A80F
:100A700001700021405601F0F3FD02B080BD80B549
:100A800084B0034603A803700291019200214056EE
:100A9000029901F0FBFD04B080BD000080B584B078
:100AA00002901A490868032252029043029A1043A6
:100AB000086002980121490288421ED1FFE7A94837
:100AC0000168062048431249FFF7F4FB401C0190DF
:100AD000FFE710480068400500280DD5FFE70198A2
:100AE000002804D0FFE70198401E019003E003A90D
:100AF0000320087005E0ECE7FFE703A90020087079
:100B0000FFE703A8007804B080BDC0460070004035
:100B100040420F001470004080B584B002900191F3
:100B20000298002804D1FFE703A9012008700CE116
:100B300001988849096807221140884221D9FFE7B6
:100B40008449086807229043019A10430860FFF720
:100B500003FF0090FFE77F480068072108400199E4
:100B600088420DD0FFE7FFF7F7FE0099401A7F4952
:100B7000884204D3FFE703A903200870E5E0EAE711
:100B8000FFE7029800788007002817D5FFE7029852
:100B900000784007002807D5FFE7B8490868072212
:100BA000120310430860FFE7B44908680F221202DD
:100BB0009043029A926810430860FFE70298007819
:100BC000C007002872D0FFE70298406801280BD1C7
:100BD000FFE7AE4800688003002804D4FFE703A9BC
:100BE00001200870B1E03DE00298406802280BD176
:100BF000FFE7A64800688001002804D4FFE703A9A6
:100C000001200870A1E02CE00298406800280BD178
:100C1000FFE79E4800684005002804D4FFE703A9C9
:100C20000120087091E01BE00298406803280BD176
:100C3000FFE74A4800688007002804D4FFE703A9BB
:100C40000120087081E00AE043480068800700281E
:100C500004D4FFE703A90120087076E0FFE7FFE76F
:100C6000FFE7FFE78549086807229043029A526828
:100C700010430860FFF770FE0090FFE77F480068B0
:100C80003821084002994968C90088420DD0FFE721
:100C9000FFF762FE0099401A3449884204D3FFE707
:100CA00003A90320087050E0E8E7FFE7019829490D
:100CB000096807221140884221D2FFE725490868C8
:100CC00007229043019A10430860FFF745FE009009
:100CD000FFE72048006807210840019988420DD0AD
:100CE000FFE7FFF739FE0099401A2049884204D3F4
:100CF000FFE703A90320087027E0EAE7FFE702986F
:100D00000078400700280AD5FFE75C4908680722F9
:100D100012039043029AD26810430860FFE700F084
:100D200027F8564909680F22120211408A090C4916
:100D300089581F221140C8400A4908600A480068C3
:100D4000FFF736FE03A90870FFE703A8007804B098
:100D500080BDC046002002405C100240601002408E
:100D6000C8270008000000200800002089130000A8
:100D700080B588B0414800688006400F00280FD138
:100D8000FFE7424800680721C9020840C10A012064
:100D90008840039003993C48FFF78CFA029069E081
:100DA0003648006838210840082803D1FFE7354855
:100DB00002905EE0314800683821084010283CD19C
:100DC000FFE72F4801680322114006910068702157
:100DD00008400009401C049006980190022812D097
:100DE000FFE7019803280FD1FFE704992548FFF793
:100DF00061FA0146224800687F2212021040000A70
:100E0000484307900EE0FFE704991F48FFF752FAA6
:100E100001461B4800687F2212021040000A484326
:100E20000790FFE716480068400F401C05900798A0
:100E30000599FFF73FFA02901AE010480068382140
:100E40000840202804D1FFE70120C00302900EE0F3
:100E50000A48006838210840182804D1FFE77D209F
:100E60000002029002E000200290FFE7FFE7FFE7A8
:100E7000FFE7FFE7029808B080BDC04608100240B7
:100E80000C10024000127A000024F400001002400E
:100E900010B588B006900698002804D1FFE707A98E
:100EA000012008702AE306980078C007002800D1C6
:100EB00088E0FC480068382108400490FA4800683F
:100EC0000321084003900498102804D1FFE70398F9
:100ED000032804D0FFE70498082810D1FFE7F8485A
:100EE00000688003002809D5FFE7069840680028BD
:100EF00004D1FFE707A901200870FFE261E0FFE7E6
:100F00000698406801210904884207D1FFE7EC49AF
:100F1000086801221204104308601DE0069840682A
:100F20000521090488420BD1FFE7E5490868012241
:100F300093041843086008681204104308600AE02C
:100F4000DF49086801221304984308600868920486
:100F500090430860FFE7FFE7FFE706984068002836
:100F600017D0FFE7FFF7F8FC0590FFE7D4480068CB
:100F7000800300280CD4FFE7FFF7EEFC0599401A28
:100F8000652804D3FFE707A903200870B6E2EDE760
:100F900016E0FFF7E1FC0590FFE7C9480068800311
:100FA00000280CD5FFE7FFF7D7FC0599401A652804
:100FB00004D3FFE707A9032008709FE2EDE7FFE7EE
:100FC000FFE7FFE7069800788007002800D4A3E039
:100FD000B4480068382108400490B34800680321F1
:100FE000084003900498102804D1FFE703980228D2
:100FF00004D0FFE7049800283BD1FFE7B048006821
:101000004005002809D5FFE70698C068002804D1EC
:10101000FFE707A90120087070E2AA4908687F224B
:1010200012029043069A5269120210430860049813
:10103000002811D1FFE7A24802680721C9028A43AC
:10104000069B1B691A43026000680840C10A9E485B
:10105000C8409E490860FFE79D480068FFF7A8FC6C
:10106000002804D0FFE707A90120087046E2FFE747
:1010700051E00698C06800282FD0FFE79049086823
:101080000722D2029043069A12691043086008684A
:101090000122120210430860FFF75EFC0590FFE793
:1010A00087480068400500280CD4FFE7FFF754FC90
:1010B0000599401A032804D3FFE707A90320087005
:1010C0001CE2EDE77F4908687F2212029043069AEE
:1010D00052691202104308601CE079490868012235
:1010E000120290430860FFF737FC0590FFE7744851
:1010F0000068400500280CD5FFE7FFF72DFC059997
:10110000401A032804D3FFE707A903200870F5E17C
:10111000EDE7FFE7FFE7FFE7069800780007002804
:1011200056D5FFE7F748006838210840182810D145
:10113000FFE7F74800688007002809D5FFE7069811
:101140008069002804D1FFE707A901200870D5E1D4
:101150003DE00698806900281CD0FFE7EC4908684C
:10116000012210430860FFF7F7FB0590FFE7E8480E
:101170000068800700280CD4FFE7FFF7EDFB059916
:10118000401A032804D3FFE707A903200870B5E13C
:10119000EDE71BE0DE490868012290430860FFF795
:1011A000DBFB0590FFE7DA480068800700280CD5D4
:1011B000FFE7FFF7D1FB0599401A032804D3FFE7A7
:1011C00007A90320087099E1EDE7FFE7FFE7FFE7D4
:1011D000069800784007002800D4CAE002A9002041
:1011E0000870C848006838210840202810D1FFE75F
:1011F000CA4800688007002809D5FFE7069880687C
:10120000002804D1FFE707A90120087076E1AFE0CC
:10121000C0480068C000002810D4FFE7FFE7BD48C1
:101220000268012109070A43026000680840019032
:101230000198FFE702A901200870FFE7B64800689F
:10124000C00500281DD4FFE7B34908680122120237
:1012500010430860FFF780FB0590FFE7AE48006889
:10126000C00500280CD4FFE7FFF776FB0599401A6C
:10127000032804D3FFE707A9032008703EE1EDE748
:10128000FFE7FFE706988068012806D1FFE7A3493A
:10129000086801221043086027E006988068052846
:1012A00018D103E0081002400C1002409B49086866
:1012B000042210430860086801221043086013E00C
:1012C00000100240041002400024F400000000203E
:1012D00008000020914908680122904308600868CE
:1012E000042290430860FFE7FFE7FFE70698806865
:1012F000002818D0FFE7FFF72FFB0590FFE787488E
:101300000068800700280DD4FFE7FFF725FB05994B
:10131000401A8349884204D3FFE707A903200870D5
:10132000ECE0ECE717E0FFF717FB0590FFE77B48E1
:101330000068800700280DD5FFE7FFF70DFB059932
:10134000401A7749884204D3FFE707A903200870B1
:10135000D4E0ECE7FFE702A80078012807D1FFE717
:101360006C4908680122120790430860FFE7FFE715
:10137000FFE70698C069002800D1BBE0614800681B
:1013800038210840102876D0FFE70698C069022867
:101390004ED1FFE75D4908680122120690430860BC
:1013A000FFF7DAFA0590FFE7584800688001002847
:1013B0000CD5FFE7FFF7D0FA0599401A032804D3AC
:1013C000FFE707A90320087098E0EDE74E49086899
:1013D000554A1040069B1A6A5C6A22439C6A2402A2
:1013E0002243DC6A22431B6B1A4310430860474BBD
:1013F0001868012214062043186008681207104379
:101400000860FFF7A9FA0590FFE7404800688001EF
:1014100000280CD4FFE7FFF79FFA0599401A03282C
:1014200004D3FFE707A90320087067E0EDE721E098
:10143000364908680122120690430860FFF78CFACB
:101440000590FFE731480068800100280CD5FFE7D0
:10145000FFF782FA0599401A032804D3FFE707A98A
:10146000032008704AE0EDE7274908682D4A10403C
:101470000860FFE73DE00698C069012804D1FFE756
:1014800007A90120087039E01F48006803900398FD
:10149000032108400699096A884224D1FFE703988E
:1014A000702108400699496A88421CD1FFE70398D9
:1014B0007F21090208400699896A0902884212D1EF
:1014C000FFE703981F21490408400699C96A88422A
:1014D00009D1FFE703980721490708400699096BDE
:1014E000884204D0FFE707A90120087006E0FFE763
:1014F000FFE7FFE707A900200870FFE707A80078CB
:1015000008B010BD081002400C100240001002404C
:10151000601002403C100240007000405C1002402D
:1015200089130000FCFFFEEF8C80C11F81B000908A
:1015300001B0704780B588B0079007980068406890
:101540000690079800688068059005A800784021FB
:1015500008408009002811D1FFE70598C00700283E
:101560000CD0FFE706A80078402108408009002839
:1015700004D0FFE70798C16C8847E7E005A800782A
:1015800002210840400800280AD0FFE706A800789A
:10159000C009002804D0FFE70798016D8847D5E00F
:1015A00005A8007820210840400900280ED1FFE757
:1015B00005A80078402108408009002806D1FFE7EF
:1015C00005A84078C007002800D1BFE006A8007831
:1015D000202108404009002800D1B7E005A8007884
:1015E000402108408009002828D0FFE707985D21A6
:1015F000405C032813D0FFE70799086E04221043CC
:101600000866FFE70020049007980068C06804900F
:1016100007980068806804900498FFE70DE0FFE7F2
:101620000020039007980068C0680390079800683E
:10163000806803900398FFE788E0FFE705A800783B
:10164000202108404009002815D0FFE70799086EBF
:10165000012210430866FFE7002002900798006807
:1016600080680290079801680868402290430860EB
:101670000298FFE7FFE705A84078C00700280FD0D1
:10168000FFE70799086E082210430866FFE700206D
:10169000019007980068806801900198FFE7FFE7D4
:1016A0000798006E002850D0FFE707980168486847
:1016B000E0229043486007995D22012088540698F3
:1016C00002210840022806D0FFE706A80078C007DC
:1016D000002835D0FFE70798016848680322904347
:1016E00048600798806D002812D0FFE70798816D49
:1016F000174888630798806DFEF7E4FE002806D03F
:10170000FFE70799086E402210430866FFE7FFE7EE
:101710000798406D002812D0FFE70798416D0C48EC
:1017200088630798406DFEF7CDFE002806D0FFE7DE
:101730000799086E402210430866FFE7FFE703E0C1
:101740000798FFF7F3FEFFE7FFE7FFE708B080BD6C
:10175000311E000810B584B002900298002804D110
:10176000FFE703A9012008709CE00298406A002866
:101770000DD1FFE70298406841218900884201D1DC
:10178000FFE703E002990020C861FFE705E0029946
:101790000020086102994861FFE7029900208862F1
:1017A00002985D21405C002808D1FFE702995C2285
:1017B00000208854029800F07BF8FFE702995D2230
:1017C000022088540298016808684022904308600B
:1017D0000298C0683549884203D3FFE70020019092
:1017E00003E0012000030190FFE70298C0680F2189
:1017F000090288420BD0FFE70298C068072109025E
:10180000884204D0FFE7029900208862FFE7029A2D
:1018100000925068412189000840916821239B0271
:1018200019404018116902231940401853690121D9
:101830000B40C01893694C022340C018D369382468
:101840002340C018136A80242340C018936A4C03B5
:101850002340184312681060029A508B04231840EA
:10186000536A10242340C018536B08242340C01827
:10187000D3680F2424022340C018019B0C0323408B
:10188000C0181268506002980268D069CB02984371
:10189000D061029A00201066029A5D23D15403A9F8
:1018A0000870FFE703A8007804B010BD010700002E
:1018B00080B58AB0099000200890079006900590A6
:1018C0000490099800681A4988422FD1FFE7FFE782
:1018D00018480268012109030A43026000680840B1
:1018E00003900398FFE7FFE71348026801210A43CA
:1018F00002600068084002900298FFE7E020049030
:101900000220059000200090069007900890052086
:10191000000704A9FEF788FE009A192001901146DD
:10192000FFF7ADF80198FFF79FF8FFE70AB080BD19
:1019300000300140401002403410024010B58EB01B
:10194000109C0C900B910A9209A80380012004902E
:1019500003A900200870FFE70C985C21405C012877
:1019600004D1FFE70DA902200870BDE10C995C22AB
:1019700001208854FFE7FFE7FEF7EEFF05900C9883
:101980005D21415C06A801700C994968079109998D
:1019900008AA11800078012814D0FFE70798412198
:1019A000890088420AD1FFE70C988068002805D199
:1019B000FFE706A80078042804D0FFE703A9022067
:1019C000087087E10B98002809D0FFE70A980028E3
:1019D00005D0FFE709A80088002804D1FFE703A984
:1019E0000120087076E10C985D21405C042805D048
:1019F000FFE70C995D2205208854FFE70C99002031
:101A000008660A990C9A116409990C9A4623D152D6
:101A100009990C9A4423D1520B990C9A9163099914
:101A20000C9AD18709990C9A91870C99C8640C99E2
:101A300008650C98C068AE49884208D3FFE70C9847
:101A400001684868012212039043486007E00C983F
:101A5000016848680122120310434860FFE70C98B0
:101A60000068006840210840402807D0FFE70C9834
:101A700001680868402210430860FFE70C98C068BE
:101A80009B49884200D281E00C984068002805D02C
:101A9000FFE708A8008801280ED1FFE70C99886BA2
:101AA00000880968C8600C99886B801C88630C9951
:101AB000C88F401EC887FFE7FFE70C98C18F012041
:101AC0000029029007D1FFE70C984621405A411E99
:101AD00088410290FFE70298C007002855D0FFE731
:101AE0000C98006880688007002819D5FFE70C98DB
:101AF000C08F002814D0FFE70498012810D1FFE719
:101B00000C99886B00880968C8600C99886B801CE8
:101B100088630C99C88F401EC88700200490FFE797
:101B20000C9800688068C007002818D0FFE70C9860
:101B30004621405A002812D0FFE70C980068C06880
:101B40000C99096C08800C99086C801C08640C992D
:101B50004622885A401E885201200490FFE7FEF773
:101B6000FBFE0599401A109988420DD3FFE71098A3
:101B7000401C002808D0FFE703A9032008700C9937
:101B80005D2201208854A5E097E785E00C98406825
:101B9000002805D0FFE708A8008801280ED1FFE73C
:101BA0000C99886B0078096808730C99886B401C45
:101BB00088630C99C88F401EC887FFE7FFE70C9821
:101BC000C18F01200029019007D1FFE70C98462121
:101BD000405A411E88410190FFE70198C007002844
:101BE00059D0FFE70C98006880688007002819D555
:101BF000FFE70C98C08F002814D0FFE70498012855
:101C000010D1FFE70C99886B0078096808730C996C
:101C1000886B401C88630C99C88F401EC8870020C1
:101C20000490FFE70C9800688068C007002818D06F
:101C3000FFE70C984621405A002812D0FFE70C9885
:101C40000068007B0C99096C08700C99086C401CAA
:101C500008640C994622885A401E8852012004903C
:101C6000FFE7FEF779FE0599401A1099884205D3DF
:101C7000FFE71098401C002804D1FFE710980028C7
:101C800008D1FFE703A9032008700C995D22012009
:101C900088541FE093E7FFE70C981099059A00F02D
:101CA000D8F8002807D0FFE703A9012008700C9995
:101CB00020200866FFE70C98006E002804D0FFE79C
:101CC00003A90120087004E00C995D2201208854CA
:101CD000FFE7FFE7FFE70C995C2200208854FFE74D
:101CE00003980DA90870FFE70DA800780EB010BD8D
:101CF0000107000080B582B00190019800F044FC1B
:101D000002B080BDFFE7FEE710B590B000200F9055
:101D10000E900D900C900B90FFE72A48026804216A
:101D20000A430260006808400A900A98FFE7FFE74C
:101D30002448026801210A430260006808400990B3
:101D40000998FFE7052006900007049011210291F1
:101D500001220192FEF7E9FD0199029A04980B9283
:101D60000C91002107910D910E910BA90591FEF7A1
:101D70005BFC029A049805990A230B9312040C92B7
:101D8000022203920D92FEF74FFC039A04980599E4
:101D9000079B04240B940C930D92FEF745FC0698C8
:101DA000079A1146FEF76BFE0698FEF75DFE079A4E
:101DB000062008901146FEF762FE0898FEF754FED2
:101DC00010B010BD3410024080B582B017480190A9
:101DD0001049016041218900416000218160072292
:101DE0001302C3600161416101235B028361182317
:101DF000C361016241628162C26201630821416381
:101E0000FFF7A8FC002803D0FFE7FEF753FBFFE72E
:101E100002B080BD00300140FFE7FEE770470000E0
:101E200080B50248FFF786FB80BDC04664040020F1
:101E300080B582B001900198806A00900099462296
:101E4000002088520099C8870098FFF76FFB02B006
:101E500080BD80B586B00490039102920498039BE4
:101E6000029900910321C902002200F03DF80028E8
:101E700009D0FFE70499086E20221043086605A9DF
:101E8000032008702CE00498039B029900918021A4
:101E9000002200F0D1F8002809D0FFE70499086E6D
:101EA00020221043086605A90320087018E0049852
:101EB000039B0299009103214902002200F014F8CB
:101EC000002809D0FFE70499086E20221043086615
:101ED00005A90320087003E005A900200870FFE7AA
:101EE00005A8007806B080BD10B58CB00E9C0A9095
:101EF00009910892079302A90020087007980190A1
:101F0000FEF72AFD024601980E99891A401805909D
:101F1000FEF722FD04900A9800680C3003900599A2
:101F20009048026823205043000D48430690FFE785
:101F30000A9800688068099908400899884273D017
:101F4000FFE709980321490288420AD1FFE7089870
:101F5000002806D1FFE70398007802A908700298CC
:101F6000FFE70798401C00285DD0FFE7FEF7F4FC70
:101F70000499401A0599884204D2FFE70598002881
:101F800046D1FFE70A9801684868E022904348601C
:101F90000A98406841218900884215D1FFE70A98D4
:101FA00080680121C903884207D0FFE70A9880684A
:101FB00001218902884207D1FFE70A980168086871
:101FC000402290430860FFE70A98806A0121490394
:101FD00088420FD1FFE7FFE70A98016808680122ED
:101FE0005203904308600A9801680868104308602B
:101FF000FFE7FFE70A995D2201208854FFE70A996D
:102000005C2200208854FFE70BA9032008700FE032
:102010000698002803D1FFE700200590FFE7069807
:10202000401E0690FFE783E70BA900200870FFE73A
:102030000BA800780CB010BD10B58AB00C9C0890AD
:10204000079106A80270059305980190FEF784FC9D
:10205000024601980C99891A40180390FEF77CFCFF
:10206000029003993F4800684001000D48430490E6
:10207000FFE708980068806807990840401A4142C5
:10208000484106A90978884263D0FFE70598401CBB
:1020900000285DD0FFE7FEF75FFC0299401A039924
:1020A000884204D2FFE70398002846D1FFE708984A
:1020B00001684868E02290434860089840684121E0
:1020C0008900884215D1FFE7089880680121C9037B
:1020D000884207D0FFE7089880680121890288427A
:1020E00007D1FFE70898016808684022904308601C
:1020F000FFE70898806A0121490388420FD1FFE772
:10210000FFE70898016808680122520390430860BD
:1021100008980168086810430860FFE7FFE708991E
:102120005D2201208854FFE708995C220020885432
:10213000FFE709A9032008700FE00498002803D1E5
:10214000FFE700200390FFE70498401E0490FFE79C
:102150008FE709A900200870FFE709A800780AB0F6
:1021600010BDC046000000207047000080B5FFE7AA
:10217000EA49486F7822895AFEF7BEFB002807D04B
:10218000FFE7E649486F7822895AFEF7B5FBEFE78B
:1021900080BDC04680B5E149C86E7022895A0122CF
:1021A000FEF7C3FB80BDC04680B5DC49C86E702217
:1021B000895A0022FEF7B9FB80BDC04680B582B0C7
:1021C000EE481D21017007214170402181700021DE
:1021D0000091EB490522642300F076F9D04800789D
:1021E000002804D0FFE701A9022008700CE0E448B1
:1021F0000079142804D1FFE701A90020087003E04A
:1022000001A901200870FFE701A8007802B080BD95
:10221000C248704770B58EB00D900C91D74812210E
:102220000170FF2141708170C17000210091D4497B
:102230000422642300F048F9FFE705200007082185
:10224000FEF75AFB00280ED0FFE7CC4802210170B0
:10225000FF214170817000210091C949032264234C
:1022600000F032F9E9E7C548049014210170FF211C
:10227000029141708170C170C21C059201710021F0
:1022800003910091BE49099105226424234600F080
:102290001BF9029B039A0498099913250570437052
:1022A0008370C37000920422234600F00DF9039856
:1022B0000499099A93780BAD08952B70D3780AADE1
:1022C0002B70107050709070D070107150719071B0
:1022D000D071107250721E220A700A9A4A70887069
:1022E000C870087148718871FFF740FFFFF75CFF05
:1022F0000499099A0094894806900323FFF71EFB6E
:102300000599089B099A05460698854E07963570EB
:102310001B780094FFF712FB07990870FFF73AFF4C
:10232000FFF724FF089A09990D981278FDF760FFCE
:102330000B980C9908700EB070BDC04680B586B081
:10234000FFF728FF75490391486E68220292895A67
:1023500000220492FEF7E9FA3220FEF711F9029A00
:102360000399486E895A0122FEF7DFFA642005902E
:10237000FEF706F90499059B804897220270417088
:102380008170C1700A2100917D49042200F09CF8FF
:10239000FFF714FF002803D1FFE700F003F8FFE781
:1023A00006B080BDF0B589B0744805909D210170DC
:1023B000012646700A24009471490691022507956A
:1023C000642308932A4600F07FF805980699089B35
:1023D0008A220270467000942A4600F075F805982B
:1023E0000699089B862202701B224270102282707E
:1023F00000270497C770077100940522039200F02C
:1024000063F805980699089B9F2202704770009414
:102410002A4600F059F8039A0599089B8B2008700A
:10242000072002904870069905988270C67007715F
:10243000009400F049F80298039A059B95211970C1
:1024400004215970089B0599887006990598C770F2
:102450000671009400F038F805980699089B8E22C2
:1024600002701622427085700094032200F02CF84E
:10247000049A05980699089BA0260670427000945D
:102480002A4600F021F8049A05980699089B082628
:10249000067042708570FF25C570057142718271AA
:1024A000C27102720094092200F00EF80598069994
:1024B000079A089B9325057030254570009400F01D
:1024C00003F809B0F0BDC046B0B588B004460C981A
:1024D0000794069105A901910A80049303A902912A
:1024E0000880FFF743FEFFF75FFE01980799069A01
:1024F0000388049800900948FFF720FA08490870FB
:10250000FFF748FE02980088002805D0FFE703A8DF
:102510000088FEF735F8FFE708B0B0BD7400002072
:102520006104002010B586B0144803908C2101701E
:10253000002141700C228270C170FF220292027150
:102540004171817100910E49049107226423059322
:10255000FFF7BAFF029A03980499059B822404703E
:1025600042708270C270322200920422FFF7ACFFE8
:1025700004490120087006B010BDC0465604002072
:102580004C040020C804002080B584B0029002985A
:10259000401E000E002803D0FFE70120039011E049
:1025A0000298401E0949086000200190C0430321A1
:1025B00000F06CF8019806490860064A072111608E
:1025C0000390FFE7039804B080BDC04614E000E02C
:1025D00018E000E010E000E080B5FEF7C1F980BD32
:1025E00010B594B007A802903421FDF760FE0020DA
:1025F0000090069005900490039001200190400205
:10260000FEF74CFA009A01990298022307930C02F4
:102610000A940B9240240C940E930F93109208226C
:1026200011924A04129249071391FEF731FC0028D7
:1026300003D0FFE7FDF73EFFFFE7072003900221ED
:10264000049100200590069003A8FEF765FA002883
:1026500003D0FFE7FDF72EFFFFE714B010BD704772
:1026600081B001466846017000214056002809D417
:10267000FFE7684601781F20014001208840024999
:102680000860FFE701B0704700E100E070B582B07C
:10269000024601A80270009100214056002816D47D
:1026A000FFE7002401A908570322D3431840174A23
:1026B000805809578C07E50EFF24AC40A043009CCE
:1026C000A401E4B2AC402043194088501AE001A9AB
:1026D00008780F24204008380322D34318400A4AC0
:1026E0008058002549578D07EE0EFF25B540A843B9
:1026F000009DAD01EDB2B540284321400839194095
:102700008850FFE702B070BD1CED00E000E400E07F
:1027100080B584B000200390FEF72EF9FFF760FF2C
:10272000FFF7F2FAFFF750FBFFF772FD0146782240
:1027300004208852FFF76CFD014605200007029037
:102740004867FFF765FD0146702210208852FFF7A9
:102750005FFD01460298C866FFF75AFD01466822F0
:1027600001208852FFF754FD014602984866FFF7A2
:102770004FFD10496422FDF703FDFFF7DFFDFFF772
:10278000D1FEFFE70C480078002812D0FFE70A4985
:10279000002008700948019001780948401809494B
:1027A000FFF738FDFFF7BEFE01990878001D08709D
:1027B000FFE7E7E7640400207100002060040020C8
:1027C000C90400207000002000000000000000008C
:1027D00000000000000000000000000000000000F9
:1027E00000000000000000000100000002000000E6
:1027F00003000000040000000600000007000000C5
:10280000080000000900000028280008000000203F
:10281000100000001C0100083828000810000020EB
:10282000880B00003C0100080024F40001000000B7
:0828300004000000000000009C
:04000005080000C12E
:00000001FF
